:100000000C94E5000C9402010C9402010C94020182
:100010000C9402010C9402010C9402010C94020154
:100020000C9402010C9402010C9439020C94880285
:100030000C9402010C9402010C9402010C94020134
:100040000C9402010C9402010C9402010C94020124
:100050000C9402010C9402010C9402010C947E0A8F
:100060000C9402010C9402010C9402010C94020104
:100070000C9402010C9402010C9402010C940201F4
:100080000C9402010C9402010C9402010C940201E4
:100090000C9402010C9402010C9402010C940201D4
:1000A0000C9402010C9402010C9402010001000066
:1000B000EB001200020000FD0042002200003F01A0
:1000C00035002100000F01090022010074011C000D
:1000D0002101002801090003000090010401030927
:1000E0000494010C02030904A2010A120100020097
:1000F000000020C0167C0400010102000109024238
:1001000000020100A0320904000001030000000900
:10011000211101000122350007058103200001099A
:100120000401000203000000092111010001221C4A
:100130000007058203400002070503034000020593
:10014000010906A10175019532050719002931152C
:1001500000250181029501810195CD193329FF8187
:10016000029505750105081901290591029501758A
:10017000039103C006ABFF0A0002A1017508150038
:1001800026FF00954009018102954009029102C0B5
:10019000040309040C036B006F006D006100720022
:1001A00000000A034700480036003000000003DC6E
:1001B000050000E8060100B1040000220801C12288
:1001C0000002C1360003C036040011241FBECFEF69
:1001D000DAE0DEBFCDBF14E0A0E0B1E0E4E0FBE197
:1001E00002C005900D92A233B107D9F715E0A2E342
:1001F000B4E001C01D92AB30B107E1F70E94D20B11
:100200000C94800D0C9400001F93CF93DF930F92FA
:10021000CDB7DEB7182F69830E9424026981882335
:1002200019F00E94270203C0812F0E946E0B0F90CD
:10023000DF91CF911F9108950E942402882319F025
:1002400081E08093320408958091330490913404C6
:100250008531910540F0109234041092330481E00E
:10026000809332040895019690933404809333046C
:10027000089587FD14C090E0FC0123E0EE0FFF1FFE
:100280002A95E1F7E81BF90BEF59FE4FA281B381E4
:100290009C918681982381E019F480E0089580E0A4
:1002A000089587FD19C090E0FC0133E0EE0FFF1FB9
:1002B0003A95E1F7E81BF90BEF59FE4FA081B181A8
:1002C000662329F08C919681892B8C9308959C91BB
:1002D0008681809589238C93089587FD19C090E0CD
:1002E000FC0143E0EE0FFF1F4A95E1F7E81BF90B15
:1002F000EF59FE4FA481B581662329F08C91968138
:10030000892B8C9308959C918681809589238C9369
:1003100008958091E80080FFFCCF0895E8EEF0E0BA
:1003200080818E7F808380818F7780830895809104
:10033000E80082FFFCCF8091E8008B7F8093E8008B
:100340008091E8008F778093E80008950F931F93C2
:10035000CF93DC018A0149E02CEA30E006C08091AD
:10036000EB0080628093EB0024C0F90185919491A9
:100370008A179B0739F4F901329685919491861773
:10038000970729F0295F3F4F415079F7E8CF2C5F5D
:100390003F4FF90185919491CFB77894B80140E22D
:1003A00050E021E00E940304882311F00E9497018D
:1003B000CFBFCF911F910F9108958091D700816099
:1003C0008093D70089B5806189BD89B5826089BD78
:1003D00009B400FEFDCF8091D80080698093D800D9
:1003E0008091D8008E7D8093D8008091E0008A7F34
:1003F0008093E000109238048CE28093E2007894BD
:10040000809138048823E1F38091E2008160809339
:10041000E2000895E2EEF0E08081837F8083109215
:100420003804E0EEF0E0808181608083E8EDF0E068
:1004300080818F768083E7EDF0E080818E7F8083FE
:10044000089580913804089580913704089580912B
:100450003704882369F08091E00082608093E00097
:100460008091E00081FDFCCF809137048823E1F783
:1004700008951F920F920FB60F9211242F933F935E
:100480004F935F936F937F938F939F93AF93BF939C
:10049000CF93DF93EF93FF93C091E900D091E100F8
:1004A0001092E100D3FF06C080E00E945204109237
:1004B000380419C0D2FF0EC080913804882351F04F
:1004C000E091ED01F091EE010995E091EF01F091DD
:1004D000F0010995D0FF03C081E080933704D5FF78
:1004E00002C010923704C093E900FF91EF91DF91B1
:1004F000CF91BF91AF919F918F917F916F915F91BC
:100500004F913F912F910F900FBE0F901F90189514
:100510001F920F920FB60F921124FF920F931F9309
:100520002F933F934F935F936F937F938F939F93FB
:10053000AF93BF93EF93FF93CF93DF93CDB7DEB726
:100540002897DEBFCDBFF090E9001092E9008091BE
:10055000E80083FD12C0EEEAF1E084918093E900A7
:100560008091E800877509F417C13196259134917F
:100570008091E800F90109950FC1CE01019668E06C
:100580000E94E7038091E800877F8093E8008981DB
:100590008F7709F062C08A81853079F48B818093EE
:1005A000E3000E9489010E948E010E9489018091CE
:1005B000E30080688093E300EFC08930B9F48B8159
:1005C000809338040E9489010E948E0101E012E0AC
:1005D000802F0E945204882309F4D9C01093EA00A6
:1005E0001092EA000F5F043099F7D6C0883039F4D2
:1005F0000E948901809138048093F10008C088230B
:1006000049F40E9489011092F1001092F1000E94B9
:100610008E01B5C0863039F1833061F48B819C81C5
:100620008130910509F0B3C0809135049091360472
:1006300082600EC0813009F0AAC08B819C8181301C
:10064000910509F0A4C080913504909136048D7F06
:1006500090933604809335049FC0813069F48A8179
:10066000863009F094C06D817E814F8158858B81E1
:100670009C810E94A60190C0823009F049C08A8105
:10068000882379F40E9489018D818093E9009091FB
:10069000EB0081E095FF80E01092E9008093F1008B
:1006A000B4CF813019F0833009F071C08B819C8107
:1006B000009709F06CC00D811E810F771070C80182
:1006C00001978330910508F062C00E9489010E9461
:1006D0008E010093E9008A81833031F48091EB0030
:1006E00080628093EB0011C08091EB008861809361
:1006F000EB0081E090E0002E02C0880F991F0A9461
:10070000E2F78093EA001092EA001092E90044C0F8
:10071000813209F03CC081EB91E0FC0125913491DC
:100720004D8150E060E070E0890120E030E0041786
:1007300015072607370771F00496FC0125913491BF
:10074000C901A0E0B0E084179507A607B707F9F440
:10075000E1E001C0E0E0F0E0EE0FFF1FEE0FFF1F51
:100760003296EF54FE4F25913491CE010196F90156
:100770000995882361F089818078803819F40E9476
:1007800097010AC00E9489010E948E0105C08091D4
:10079000EB0080628093EB00F092E9002896DEBFC8
:1007A000CDBFDF91CF91FF91EF91BF91AF919F911D
:1007B0008F917F916F915F914F913F912F911F91F9
:1007C0000F91FF900F900FBE0F901F901895FC0196
:1007D00004C08091F100819361506623D1F70895A0
:1007E000FC0104C081918093F10061506623D1F730
:1007F000089506C0FC010196E491E093F100615078
:100800006623C1F70895BF92CF92DF92EF92FF92D5
:100810000F931F93CF93DF937C01EB016A01B22EFC
:1008200034C08091E80080FD04C08091E80082FF20
:10083000F8CF8091E80082FF0CC08091E8008B7FA8
:100840008093E8008091E8008F778093E80080E053
:100850001FC08E01CC16DD0608F48601C701602F8B
:10086000BB2019F00E94F90302C00E94F00380919E
:10087000E8008E7F8093E8008091E8008F77809376
:10088000E800E00EF11EC01BD10B209751F681E06D
:10089000DF91CF911F910F91FF90EF90DF90CF905C
:1008A000BF90089540E050E09A01220F331F220FBD
:1008B000331FF901E754FE4FE491E81739F04F5F19
:1008C0005F4F4430510581F780E008958093E9003F
:1008D00081E08093EB00F901E654FE4FE491E09350
:1008E000EC00F901E554FE4FE491E093ED008091B6
:1008F000EE0087FF08C024543E4FF9012491209355
:10090000F00081E0089580E00895DB014FEF5FEF94
:100910000DC02D91242730E0F901EF50FE4F4081AA
:1009200045272F503D4FF90150810197009789F7D6
:10093000352F20E0842F90E0822B932B0895E8EE52
:10094000F0E080818B7F808380818F778083089522
:10095000E8EEF0E080818E7F808380818F778083D6
:1009600008950F931F93CF93DF93EC018881813A11
:1009700009F589818130F1F410E48091E80090E07C
:100980009C012570307021153105B9F382FD2CC012
:10099000012F113208F000E2802F03C01092F10005
:1009A00081508823D9F7101B0E94A804112329F72E
:1009B000003219F388818132C9F489818930B1F418
:1009C000C0E41C2FC13208F010E28091E80082FFE1
:1009D000FCCF0E949F04C11BA1F78091E80080FF1B
:1009E000FCCF0E94A80402C080E001C081E0DF913A
:1009F000CF911F910F9108951F93CF93DF93EC0137
:100A00000E9421028823A1F01FB7F89482E080930E
:100A1000E9008091E80080FD02C01FBF09C0CE013F
:100A200060E40E94F0030E94A8041FBF81E001C09F
:100A300080E0DF91CF911F9108951F93CF93DF93B3
:100A4000EC010E9421028823A1F01FB7F89483E0F3
:100A50008093E9008091E80082FD02C01FBF09C0B9
:100A6000CE0160E40E94E7030E949F041FBF81E063
:100A700001C080E0DF91CF911F910895CF92DF9266
:100A8000EF92FF920F931F9380913904843009F005
:100A90008CC080914004813009F44FC0813038F01F
:100AA000823009F464C0833009F079C06CC01092C0
:100AB0006E0080E090E0A0E0B0E023E0C22ED12CF8
:100AC000E12CF12C0F921F920F931F93282F182FB8
:100AD0000C2D0E94F63F802F1F910F911F900F90B9
:100AE0008695837023E030E0281B310940E052E016
:100AF00002C0440F551F2A95E2F7662757FD6095FF
:100B0000762F8FEF9FE7A0E0B0E0841B950BA60B3C
:100B1000B70BB695A795979587950196A11DB11D21
:100B2000AC01BD01507060707070892F90E0A0E042
:100B3000B0E0E42FF82F099436C080913C049091E6
:100B40003D048238910531F56091410470E0625BAB
:100B50007F4F7695762F662777956795882777FD5F
:100B60008095982F42E454E00E94F1071CC08091C8
:100B70003C0490913D048130910561F480E097E25E
:100B80000E944B0B10C080913C0490913D04813039
:100B9000910511F086E004C00E94660B04C088E055
:100BA0008093390402C0109239041F910F91FF9075
:100BB000EF90DF90CF9008950F931F93CF93DF9323
:100BC000CDB7DEB7C054D0400FB6F894DEBF0FBE2D
:100BD000CDBFCE0101960E941D05882309F4C8C02F
:100BE0008981823069F0833020F4882309F4A2C01F
:100BF000BFC0833009F443C0843009F0B9C0AEC02F
:100C000080913904843011F487E091C080913904D7
:100C1000882309F0ADC08A8190E090933D048093D1
:100C20003C048B819C8190933F0480933E0480918F
:100C30003C0490913D048D3391052CF400913C04CB
:100C400010913D0402C00CE310E080E494E0BE018A
:100C50006B5F7F4FA8010E94700D10933B040093BF
:100C60003A0420913A0430913B0480913C049091E5
:100C70003D04281739070CF042C083E058C080912A
:100C80003904833011F081E052C080913C0490918E
:100C90003D0420913A0430913B04821B930B803435
:100CA00091055CF440913C0450913D0480913A04DC
:100CB00090913B04481B590B02C04FE350E08091D8
:100CC0003A0490913B04805C9B4FBE016E5F7F4F66
:100CD0000E94700D80913A0490913B04CF969093BE
:100CE0003B0480933A0420913A0430913B04809174
:100CF0003C0490913D04281739070CF439C08091C9
:100D00003C0490913D0460E474E00E9485042091CD
:100D10003E0430913F048217930741F082E08093B4
:100D2000390410923D0410923C0422C084E0809368
:100D300039041EC081E08983809139048A83E0E010
:100D4000F7E285919591A591B4918B839C83AD83B6
:100D5000BE83CE0101960E94FC040AC010923D049D
:100D600010923C0410923B0410923A041092390401
:100D7000C05CDF4F0FB6F894DEBF0FBECDBFDF9172
:100D8000CF911F910F910895E8EEF0E080818E7F62
:100D9000808380818F77808308958091E404E1EFE0
:100DA000F0E08083108282EC94E066E00E94F00321
:100DB00008958091F503882341F0813041F488EC57
:100DC00094E060E20E94F00308950E94CD06089529
:100DD000FC01808180788038D9F48091E80080FF20
:100DE000FCCF8181823041F0833059F0813009F0AD
:100DF00043C00E94D90609C08091F3039091F40387
:100E000002C08091F5038093F1000E94C4061FC0C8
:100E10008181893039F0893088F18A30D1F08B3086
:100E200069F526C08091E80082FFFCCF8091F10037
:100E30008093E90481E08093E8048091E8008B7F4F
:100E40008093E8008091E8008F778093E80081E04C
:100E50000895838190E09093F4038093F30380914D
:100E6000F3039091F4039093F2038093F103EFCF97
:100E700082818093F503EBCF80E0089580E00895B0
:100E80000E942102882309F442C08091EA04882349
:100E900081F48091F3039091F403009769F020911D
:100EA000F1033091F20381E090E02115310531F03A
:100EB00003C081E090E002C080E090E0882339F137
:100EC00081E08093E9008091E80080FF0AC011C0B2
:100ED0008091E80084608093E8008091E80082FDC2
:100EE000FCCF8091EE0081FDF3CF8091EE0080FD7C
:100EF000EFCF0E94D9060E94C4061092EA048091A6
:100F0000F3039091F4039093F2038093F103089517
:100F1000E82FE695E695E695F0E0E853FB4F208153
:100F200030E0877041E050E002C0440F551F8A95C1
:100F3000E2F72423352381E02115310509F480E00F
:100F40000895E82FE695E695E695482F4770F0E07E
:100F5000E853FB4F908121E030E002C0220F331FA5
:100F60004A95E2F7662321F420952923208302C0C5
:100F7000922B90839091F503992309F520E030E0BE
:100F8000662339F412C02F5F3F4F2630310509F434
:100F90000895F901EE53FB4F90819923A1F70CC0FE
:100FA0002F5F3F4F2630310551F0F901EE53FB4FD3
:100FB00090819817A9F702C0808308951082089540
:100FC00081E08093EA0408958091E9040895809176
:100FD000E804882321F01092E80481E0089580E07D
:100FE00008954F925F926F927F928F929F92AF92ED
:100FF000BF92CF92DF92EF92FF920F931F93CF9306
:10100000DF930F92CDB7DEB72B013C018FB78983F9
:10101000F894DA0160E070E0882499248D919D9124
:101020002FEFC22ED12CC822D922892F99270F92B7
:101030001F920F931F93382D262F1C2D082F0E94CF
:10104000F83F1F910F911F900F906E5F7F4F603898
:10105000710521F7862C9924AA24BB24C52CDD24F4
:10106000EE24FF24D301C2019070A070B0700F92E3
:101070001F920F931F93282D1C2D082F0E94F23FC3
:101080001F910F911F900F9089818FBF0F90DF915B
:10109000CF911F910F91FF90EF90DF90CF90BF9075
:1010A000AF909F908F907F906F905F904F9008953A
:1010B0009091EB04899F802D1124680F862F8695CF
:1010C00086958695E091ED04F091EE04E80FF11D10
:1010D000808190E0677002C0959587956A95E2F7E8
:1010E000817008959091EB04899F802D1124680FE1
:1010F000862F869586958695677090E0E091ED0441
:10110000F091EE04E80FF91F81E090E002C0880F33
:10111000991F6A95E2F7442319F09081982B03C038
:1011200080959081982390830895EF92FF920F937A
:101130001F93CF93DF938093EF041092F0044093BA
:10114000EB041092EC041093F2040093F1047093FA
:10115000F4046093F3043093F6042093F504849F21
:10116000E0011124279683E0D595C7958A95E1F78C
:10117000CE010E94410C8093ED049093EE0460E058
:1011800070E0AE010E94790DF092F804E092F7044D
:10119000DF91CF911F910F91FF90EF900895AF9243
:1011A000BF92CF92DF92EF92FF920F931F93CF9354
:1011B000DF9310E015C0E091F304F091F404EC0F1C
:1011C000FD1F808160E00E946D01E091F304F091C9
:1011D000F404EC0FFD1F808160E00E9451011F5F4D
:1011E000C12FD0E08091EF049091F004C817D90787
:1011F00014F310E015C0E091F504F091F604EC0F43
:10120000FD1F808160E00E946D01E091F504F09186
:10121000F604EC0FFD1F808161E00E9451011F5F09
:10122000C12FD0E08091EB049091EC04C817D9074E
:1012300014F3D0E000E0BB24B39495E0A92E56C08F
:10124000E091F304F091F404EC0DFD1D808161E068
:101250000E946D018A2D8A95F1F7C0E033C0E091BC
:10126000F504F091F604EE0DFF1D80810E94390116
:10127000182F1B258D2F6C2F0E945808181709F165
:101280008D2F6C2F412F0E9472088091EB0490915A
:10129000EC04C89E9001C99E300DD89E300D1124DB
:1012A000E091F104F091F204EE0DFF1DE20FF31F47
:1012B0002091F7043091F8048081612FF90109959C
:1012C00001E0CF5FEC2EFF248091EB049091EC04C1
:1012D000E816F90624F2E091F304F091F404EC0D21
:1012E000FD1D808160E00E946D01DF5FCD2EDD2459
:1012F0008091EF049091F004C816D9060CF4A0CFA9
:10130000802FDF91CF911F910F91FF90EF90DF9091
:10131000CF90BF90AF900895809159018F3F51F0C9
:101320008091590161E00E946D018091590161E055
:101330000E94510180915D018F3F51F080915D01CC
:1013400061E00E946D0180915D0161E00E945101A8
:1013500014BC81E085BD80936E000895E82FF0E015
:10136000EE0FFF1FEE0FFF1FE75AFE4F8381681736
:1013700041F06383662319F081E08283089582E05F
:1013800082830895E82FF0E0EE0FFF1FEE0FFF1F9E
:10139000E75AFE4F928181E0911180E0089580919B
:1013A00059018F3F21F080915B01882349F480919E
:1013B0005D018F3F39F090915F0181E0992319F031
:1013C00080E0089581E0089581FF03C081E061E03D
:1013D00002C081E060E00E94AE09089580E090E0E4
:1013E00030E1FC01EE0FFF1FEE0FFF1FE75AFE4F2B
:1013F00020812F3F99F02281213049F0223071F471
:1014000021812150218327FF09C0118206C021813B
:101410002F5F2183213114F03183128201968230B3
:101420009105F9F608958091F9049091FA04813CB0
:101430009105B4F01092FA041092F90480915901C8
:101440008F3F29F08091590161E00E945101809104
:101450005D018F3F29F080915D0161E00E945101A3
:10146000809159018F3FD9F0E0915A01FF27E7FDA4
:10147000F095EE0FFF1FEA50FC4F81EC90E02081C9
:101480003181821B930B2091F9043091FA04821769
:10149000930729F48091590160E00E9451018091E5
:1014A0005D018F3FD9F0E0915E01FF27E7FDF095E8
:1014B000EE0FFF1FEA50FC4F81EC90E0208131815C
:1014C000821B930B2091F9043091FA048217930741
:1014D00029F480915D0160E00E9451018091F9043E
:1014E0009091FA0401969093FA048093F904089578
:1014F00014BC81E085BD80936E0008951F920F9209
:101500000FB60F9211242F933F934F935F936F93D6
:101510007F938F939F93AF93BF93EF93FF930E941B
:10152000130A80911E0490911F04A0912004B09191
:1015300021040196A11DB11D80931E0490931F04E8
:10154000A0932004B093210440911A0450911B04ED
:1015500060911C0470911D04481759076A077B07A6
:1015600068F410921E0410921F041092200410922E
:101570002104E0911804F091190409958091280440
:1015800090912904A0912A04B0912B040196A11DE9
:10159000B11D8093280490932904A0932A04B0934A
:1015A0002B044091240450912504609126047091ED
:1015B0002704481759076A077B0768F41092280424
:1015C0001092290410922A0410922B04E091220414
:1015D000F09123040995FF91EF91BF91AF919F91F5
:1015E0008F917F916F915F914F913F912F910F90CC
:1015F0000FBE0F901F9018950F931F93A0E0B0E0BF
:1016000040E050E020C0829F90011124240F351F3C
:10161000220F331F220F331FE091FB04F091FC04D3
:10162000E20FF31F0591159125913491E091030587
:10163000F0910405EA0FFB1F00831183228333839B
:101640004F5F5F4F14962091FE04622F70E04617A3
:101650005707CCF2EEEFF4E082831F910F910895CB
:10166000CF93DF938093FE04EC01880F991F880FBE
:10167000991F0E94410C8093030590930405CE01AD
:101680000E94410C809301059093020580E090E058
:10169000DF91CF910895FC0134912091FE0432171F
:1016A00091F43196E491E093FF0402969093FC0448
:1016B0008093FB0480E00E94FC0A81E08093FD049B
:1016C00080E090E008958FEF9FEF08951092FD0461
:1016D000089590930605809305050895CF93DF93B1
:1016E0009091FD04992309F45AC090E0A09103055C
:1016F000B0910405EC01CC0FDD1FCC0FDD1FAC0F4A
:10170000BD1F2C91662311F1222371F0E091010598
:10171000F0910205E80FF91F2083E0910505F09193
:1017200006058C9161E00995E0910305F0910405AF
:10173000EC0FFD1F818182958F70813019F082300E
:1017400071F502C0928124C0828127C0222371F0EA
:10175000E0910105F0910205E80FF91F20910505C0
:1017600030910605808160E0F9010995E09103055B
:10177000F0910405EC0FFD1F818190E08F70907057
:101780008130910521F08230910549F405C09381A3
:1017900080910005890F01C083810E94FC0ADF91BE
:1017A000CF91089580E090E020E80FB6F894209360
:1017B0006100809361000FBE0E94DD0181E490E032
:1017C0000E94300B80E097E20E944B0B81EA97E089
:1017D0000E94690B85E06EE071E04EE020E031E0B0
:1017E00003E111E054E0E52E51E0F52E0E9495084A
:1017F0000E94E0070E94780A0E948C09FF24C0E042
:10180000D0E002E010E00E9424028823A1F0FF2033
:1018100009F580E00E94E4090E94CF098823E1F3E2
:1018200080E80FB6F89480936100009361000FBECA
:10183000FF24F3940FC0FF2069F080E80FB6F894FE
:1018400080936100C09361000FBE0E94E4070E9474
:10185000E409FF2480913204882381F0109232043D
:101860000E94CF08882311F00E94E0070E94E7073A
:10187000882321F00E94E4070E94E4090E943E05AB
:10188000C2CFCF93DF93AC018230910510F442E0D8
:1018900050E0E0910905F0910A0520E030E0A0E079
:1018A000B0E024C08081918184179507D0F084171F
:1018B000950771F482819381109729F013969C9378
:1018C0008E9312972CC090930A058093090527C028
:1018D0002115310519F08217930718F49C01BD01F9
:1018E000EF0192818381DF01E92FF82F3097D1F644
:1018F00021153105F9F0C901841B950B8430910540
:1019000080F48A819B816115710521F0FB0193832D
:10191000828304C090930A0580930905FE013296E4
:1019200042C0FE01E80FF91F41935193029799833A
:10193000888339C08091070590910805009741F48C
:1019400080912E0490912F049093080580930705B1
:1019500020912C0430912D042115310541F42DB72F
:101960003EB78091300490913104281B390BE091EF
:101970000705F0910805E217F30798F42E1B3F0BBB
:101980002417350770F0CA0102962817390748F066
:101990008E0F9F1F909308058093070541935193E5
:1019A00002C0E0E0F0E0CF01DF91CF9108950F9306
:1019B0001F93CF93DF939C01009709F48CC0DC0147
:1019C000129713961C921E921297609109057091BE
:1019D0000A056115710589F48D919C911197820F0B
:1019E000931F20910705309108052817390769F5DD
:1019F000B0930805A09307056EC0FB0140E050E0DE
:101A000001C0FC01EA17FB0730F482819381AF012A
:101A10000097B9F71FC0E9012297FB83EA83088189
:101A20001981C901800F911F8E179F0759F480817A
:101A30009181800F911F029699838883828193817F
:101A40009B838A834115510529F4B0930A05A0931D
:101A5000090541C0FA01B383A283C191D191EC0F72
:101A6000FD1FAE17BF0781F4F901929182918C0F8F
:101A70009D1F0296DA0111969C938E938281938129
:101A800013969C938E931297E0E0F0E002C0FB0166
:101A9000BC01DB0112968D919C9113970097B9F7C9
:101AA000CB0102962D913C911197820F931F2091AB
:101AB0000705309108052817390769F4309729F48C
:101AC00010920A051092090502C0138212827093C7
:101AD000080560930705DF91CF911F910F9108953D
:101AE000FB01DC0102C001900D9241505040D8F73B
:101AF0000895DC0101C06D9341505040E0F7089516
:041B0000F894FFCF87
:101B040005060708090A0B0C0D0E0F10111200012F
:101B1400020304000102030405060708090A0B0C6A
:101B24000D0E0F101112131415161718191A1B1C69
:101B34001D1E1F202122232425262728292A2B2C59
:101B44002D2E2F303132333435363738393A0000C0
:101B54003B000000403C3D3E3FFF000000130000FE
:101B6400002B0029002A00012B0029002A00022B47
:101B74000029002A00042B0029002A00082B002930
:101B8400002A002031002F0030000131002F0030E6
:101B940000022E002C002D00402800260027008083
:101BA40028002600270040250023002400402B00A5
:101BB40029002A0010250023002400022500230008
:101BC4002400802500230024002025002300240075
:101BD400102B0029002A00802B0029002A00402510
:101BE40000230024000825002300240004400724C7
:101BF4000100C1814001C0804101C0804100C18118
:101C04004001C0804100C1814000C1814001C080C9
:101C14004101C0804100C1814000C1814001C080B8
:101C24004100C1814001C0804101C0804100C181A7
:101C34004001C0804100C1814000C1814001C08099
:101C44004100C1814001C0804101C0804100C18187
:101C54004000C1814001C0804101C0804100C18178
:101C64004001C0804100C1814000C1814001C08069
:101C74004101C0804100C1814000C1814001C08058
:101C84004100C1814001C0804101C0804100C18147
:101C94004000C1814001C0804101C0804100C18138
:101CA4004001C0804100C1814000C1814001C08029
:101CB4004100C1814001C0804101C0804100C18117
:101CC4004001C0804100C1814000C1814001C08009
:101CD4004101C0804100C1814000C1814001C080F8
:101CE4004100C1814001C0804101C0804100C181E7
:101CF4004000C0C101C30302C2C60607C705C5C46C
:101D040004CC0C0DCD0FCFCE0E0ACACB0BC90908DB
:101D1400C8D81819D91BDBDA1A1EDEDF1FDD1D1C1B
:101D2400DC14D4D515D71716D6D21213D311D1D0AB
:101D340010F03031F133F3F23236F6F737F535344B
:101D4400F43CFCFD3DFF3F3EFEFA3A3BFB39F9F81B
:101D54003828E8E929EB2B2AEAEE2E2FEF2DEDECBB
:101D64002CE42425E527E7E62622E2E323E12120EB
:101D7400E0A06061A163A3A26266A6A767A56564EB
:101D8400A46CACAD6DAF6F6EAEAA6A6BAB69A9A85B
:101D94006878B8B979BB7B7ABABE7E7FBF7DBDBC9B
:101DA4007CB47475B577B7B67672B2B373B171702B
:101DB400B05090915193535292965657975595948B
:101DC400549C5C5D9D5F9F9E5E5A9A9B5B9959589B
:101DD40098884849894B8B8A4A4E8E8F4F8D4D4C3B
:101DE4008C4484854587474686824243834181806B
:101DF40040F401F4010100000100010002000300AD
:101E04000400060008000C00100018002000300038
:101E1400400060008000C000EE09BC020000000029
:101E240000001C01E80300000000000000000B0596
:021E340020008C
:102700004110290000001E0000001F0000002000F2
:10271000000021000000220000002300000024002F
:1027200000002500000026000000270000002D000A
:1027300000002E0000002A0000002B000000140002
:1027400000001A000000080000001500000017003B
:1027500000001C000000180000000C000000120027
:102760000000130000002F000000300000003100C6
:1027700000003900000004000000160000000700FF
:102780000000090000000A0000000B0000000D001E
:1027900000000E0000000F000000330000003400B5
:1027A00000000000000028000000E110040000000C
:1027B00000001D0000001B000000060000001900C2
:1027C00000000500000011000000100000003600AD
:1027D0000000370000003800000000000000E51095
:1027E0000400E0000000001002FEE20000002C00E7
:1027F0000000E6000000E700000065000000E400C3
:10280000000000000000290000001E0000001F0062
:102810000000200000002100000022000000230032
:102820000000240000002500000026000000270012
:1028300000002D0000002E0000002A0000002B00E8
:102840000000140000001A0000000800000015003D
:102850000000170000001C000000180000000C0021
:10286000000012000000130000002F0000003000E4
:1028700000003100000039000000040000001600D4
:10288000000007000000090000000A0000000B0023
:1028900000000D0000000E0000000F0000003300DB
:1028A0000000340000000000000028000000E110DB
:1028B0000400000000001D0000001B0000000600D6
:1028C00000001900000005000000110000001000C9
:1028D0000000360000003700000038000000000053
:1028E0000000E5100400E000000000010202E20028
:1028F00000000010FF00E6000000E7000000650097
:102900000000E400000000000000350000003A0074
:1029100000003B0000003C0000003D0000003E00C5
:1029200000003F00000040000000410000004200A5
:1029300000004300000044000000450000004C007F
:1029400000002B000000140000001A000000080026
:10295000000015000000170000001C000000180017
:10296000000049000000120000004A0000004B0077
:1029700000003000000031000000390000000400B9
:1029800000001600000007000000090000000A0017
:1029900000005000000051000000520000004F00F5
:1029A00000004D0000004E00000000000000280064
:1029B0000000E1100400000000001D0000001B00EA
:1029C000000006000000190000000500000046009D
:1029D00000004700000048000000370000003800F9
:1029E00000000000000052000400E00000000001B0
:1029F00002FEE200000000100100E60000005000AE
:102A00000000510000004F000000000000003500F1
:102A100000003A0000003B0000003C0000003D00C8
:102A200000003E0000003F000000400000004100A8
:102A30000000420000004300000044000000450088
:102A400000004C0000002B000000140000001A00E1
:102A500000000800000015000000170000001C0026
:102A600000001800000049000000120000004A00A9
:102A700000004B0000003000000031000000390071
:102A8000000004000000160000000700000009001C
:102A900000000A0000005000000051000000520039
:102AA00000004F0000004D0000004E00000000003C
:102AB000000028000000E1100400000000001D00DC
:102AC00000001B00000006000000190000000500C7
:102AD00000004600000047000000480000003700EA
:102AE0000000380000000000000052000400E00078
:102AF00000000010FE00E20000002C000300E600D1
:102B0000000050000000510000004F0000000000D5
:102B10000000350000001E0000001F000000200023
:102B2000000021000000220000002300000024001B
:102B300000002500000026000000270000002D00F6
:102B400000002E0000002A0000002B0000001400EE
:102B500000001A0000000800000015000000170027
:102B600000001C000000180000000C000000120013
:102B70000000130000002F000000300000003100B2
:102B800000003900000004000000160000000700EB
:102B90000000090000000A0000000B0000000D000A
:102BA00000000E0000000F000000330000003400A1
:102BB00000000000000028000000E10104FC00000B
:102BC00000001D0000001B000000060000001900AE
:102BD0000000050000001100000010000000360099
:102BE0000000370000003800000000000000E50190
:102BF00004FCE0000000001002FEE20000002C00D7
:102C00000000E6000000E700000065000000E400AE
:102C1000000000000000350000001E0000001F0042
:102C2000000020000000210000002200000023001E
:102C300000002400000025000000260000002700FE
:102C400000002D0000002E0000002A0000002B00D4
:102C50000000140000001A00000008000000150029
:102C60000000170000001C000000180000000C000D
:102C7000000012000000130000002F0000003000D0
:102C800000003100000039000000040000001600C0
:102C9000000007000000090000000A0000000B000F
:102CA00000000D0000000E0000000F0000003300C7
:102CB0000000340000000000000028000000E101D6
:102CC00004FC000000001D0000001B0000000600C6
:102CD00000001900000005000000110000001000B5
:102CE000000036000000370000003800000000003F
:102CF0000000E50104FCE000000000010202E20027
:102D000000000010FF00E6000000E7000000650082
:102D10000000E400000000000000290000003A006C
:102D200000003B0000003C0000003D0000003E00B1
:102D300000003F0000004000000041000000420091
:102D400000004300000044000000450000004C006B
:102D500000002B000000140000001A000000080012
:102D6000000015000000170000001C000000180003
:102D7000000049000000120000004A0000004B0063
:102D800000003000000031000000390000000400A5
:102D900000001600000007000000090000000A0003
:102DA00000005000000051000000520000004F00E1
:102DB00000004D0000004E00000000000000280050
:102DC0000000E10104FC000000001D0000001B00E9
:102DD0000000060000001900000005000000460089
:102DE00000004700000048000000370000003800E5
:102DF00000000000000052000400E000000000019C
:102E000002FEE200000000100100E6000000500099
:102E10000000510000004F000000000000002900E9
:102E200000003A0000003B0000003C0000003D00B4
:102E300000003E0000003F00000040000000410094
:102E40000000420000004300000044000000450074
:102E500000004C0000002B000000140000001A00CD
:102E600000000800000015000000170000001C0012
:102E700000001800000049000000120000004A0095
:102E800000004B000000300000003100000039005D
:102E90000000040000001600000007000000090008
:102EA00000000A0000005000000051000000520025
:102EB00000004F0000004D0000004E000000000028
:102EC000000028000000E10104FC000000001D00DB
:102ED00000001B00000006000000190000000500B3
:102EE00000004600000047000000480000003700D6
:102EF0000000380000000000000052000400E00064
:102F000000000010FE00E20000002C000300E600BC
:102F1000000050000000510000004F0000000000C1
:102F200000000000000000000000000000000000A1
:102F30000000000000000000000000000000000091
:102F40000000000000000000000000000000000081
:102F50000000000000000000000000000000000071
:02374000000087
:00000001FF
